{
  "_format": "hh-sol-artifact-1",
  "contractName": "Airdrop",
  "sourceName": "contracts/Airdrop.sol",
  "abi": [
    {
      "inputs": [
        {
          "internalType": "bytes32",
          "name": "_merkleRoot",
          "type": "bytes32"
        },
        {
          "internalType": "address",
          "name": "_tokenAddress",
          "type": "address"
        }
      ],
      "stateMutability": "nonpayable",
      "type": "constructor"
    },
    {
      "inputs": [],
      "name": "EnforcedPause",
      "type": "error"
    },
    {
      "inputs": [],
      "name": "ExpectedPause",
      "type": "error"
    },
    {
      "inputs": [
        {
          "internalType": "address",
          "name": "owner",
          "type": "address"
        }
      ],
      "name": "OwnableInvalidOwner",
      "type": "error"
    },
    {
      "inputs": [
        {
          "internalType": "address",
          "name": "account",
          "type": "address"
        }
      ],
      "name": "OwnableUnauthorizedAccount",
      "type": "error"
    },
    {
      "anonymous": false,
      "inputs": [
        {
          "indexed": true,
          "internalType": "address",
          "name": "previousOwner",
          "type": "address"
        },
        {
          "indexed": true,
          "internalType": "address",
          "name": "newOwner",
          "type": "address"
        }
      ],
      "name": "OwnershipTransferred",
      "type": "event"
    },
    {
      "anonymous": false,
      "inputs": [
        {
          "indexed": false,
          "internalType": "address",
          "name": "account",
          "type": "address"
        }
      ],
      "name": "Paused",
      "type": "event"
    },
    {
      "anonymous": false,
      "inputs": [
        {
          "indexed": true,
          "internalType": "address",
          "name": "account",
          "type": "address"
        },
        {
          "indexed": false,
          "internalType": "uint256",
          "name": "amount",
          "type": "uint256"
        }
      ],
      "name": "TokensAirdropped",
      "type": "event"
    },
    {
      "anonymous": false,
      "inputs": [
        {
          "indexed": false,
          "internalType": "address",
          "name": "account",
          "type": "address"
        }
      ],
      "name": "Unpaused",
      "type": "event"
    },
    {
      "inputs": [
        {
          "internalType": "bytes32[]",
          "name": "_witnesses",
          "type": "bytes32[]"
        },
        {
          "internalType": "uint256",
          "name": "_totalAmount",
          "type": "uint256"
        },
        {
          "internalType": "uint256",
          "name": "_amount",
          "type": "uint256"
        },
        {
          "internalType": "uint256",
          "name": "_path",
          "type": "uint256"
        }
      ],
      "name": "airdrop",
      "outputs": [],
      "stateMutability": "nonpayable",
      "type": "function"
    },
    {
      "inputs": [],
      "name": "getAirdropTokenBalance",
      "outputs": [
        {
          "internalType": "uint256",
          "name": "",
          "type": "uint256"
        }
      ],
      "stateMutability": "view",
      "type": "function"
    },
    {
      "inputs": [],
      "name": "merkleRoot",
      "outputs": [
        {
          "internalType": "bytes32",
          "name": "",
          "type": "bytes32"
        }
      ],
      "stateMutability": "view",
      "type": "function"
    },
    {
      "inputs": [],
      "name": "owner",
      "outputs": [
        {
          "internalType": "address",
          "name": "",
          "type": "address"
        }
      ],
      "stateMutability": "view",
      "type": "function"
    },
    {
      "inputs": [],
      "name": "pause",
      "outputs": [],
      "stateMutability": "nonpayable",
      "type": "function"
    },
    {
      "inputs": [],
      "name": "paused",
      "outputs": [
        {
          "internalType": "bool",
          "name": "",
          "type": "bool"
        }
      ],
      "stateMutability": "view",
      "type": "function"
    },
    {
      "inputs": [
        {
          "internalType": "address",
          "name": "account",
          "type": "address"
        }
      ],
      "name": "redeemedTokens",
      "outputs": [
        {
          "internalType": "uint256",
          "name": "",
          "type": "uint256"
        }
      ],
      "stateMutability": "view",
      "type": "function"
    },
    {
      "inputs": [],
      "name": "renounceOwnership",
      "outputs": [],
      "stateMutability": "nonpayable",
      "type": "function"
    },
    {
      "inputs": [
        {
          "internalType": "address",
          "name": "account",
          "type": "address"
        }
      ],
      "name": "totalAssignedTokens",
      "outputs": [
        {
          "internalType": "uint256",
          "name": "",
          "type": "uint256"
        }
      ],
      "stateMutability": "view",
      "type": "function"
    },
    {
      "inputs": [
        {
          "internalType": "address",
          "name": "newOwner",
          "type": "address"
        }
      ],
      "name": "transferOwnership",
      "outputs": [],
      "stateMutability": "nonpayable",
      "type": "function"
    },
    {
      "inputs": [],
      "name": "unpause",
      "outputs": [],
      "stateMutability": "nonpayable",
      "type": "function"
    },
    {
      "inputs": [
        {
          "internalType": "bytes32",
          "name": "_airDropWhiteListMerkleRoot",
          "type": "bytes32"
        }
      ],
      "name": "updateMerkleRoot",
      "outputs": [],
      "stateMutability": "nonpayable",
      "type": "function"
    }
  ],
  "bytecode": "0x608060405234801561001057600080fd5b506040516117d23803806117d28339818101604052810190610032919061027b565b33600073ffffffffffffffffffffffffffffffffffffffff168173ffffffffffffffffffffffffffffffffffffffff16036100a55760006040517f1e4fbdf700000000000000000000000000000000000000000000000000000000815260040161009c91906102ca565b60405180910390fd5b6100b48161011e60201b60201c565b5060008060146101000a81548160ff0219169083151502179055508160018190555080600260006101000a81548173ffffffffffffffffffffffffffffffffffffffff021916908373ffffffffffffffffffffffffffffffffffffffff16021790555050506102e5565b60008060009054906101000a900473ffffffffffffffffffffffffffffffffffffffff169050816000806101000a81548173ffffffffffffffffffffffffffffffffffffffff021916908373ffffffffffffffffffffffffffffffffffffffff1602179055508173ffffffffffffffffffffffffffffffffffffffff168173ffffffffffffffffffffffffffffffffffffffff167f8be0079c531659141344cd1fd0a4f28419497f9722a3daafe3b4186f6b6457e060405160405180910390a35050565b600080fd5b6000819050919050565b6101fa816101e7565b811461020557600080fd5b50565b600081519050610217816101f1565b92915050565b600073ffffffffffffffffffffffffffffffffffffffff82169050919050565b60006102488261021d565b9050919050565b6102588161023d565b811461026357600080fd5b50565b6000815190506102758161024f565b92915050565b60008060408385031215610292576102916101e2565b5b60006102a085828601610208565b92505060206102b185828601610266565b9150509250929050565b6102c48161023d565b82525050565b60006020820190506102df60008301846102bb565b92915050565b6114de806102f46000396000f3fe608060405234801561001057600080fd5b50600436106100b45760003560e01c8063682eb32b11610071578063682eb32b14610155578063715018a6146101855780638456cb591461018f5780638da5cb5b14610199578063e3a82b8b146101b7578063f2fde38b146101e7576100b4565b8063041579db146100b95780632eb4a7ab146100d55780633f4ba83a146100f35780634783f0ef146100fd57806357212ae9146101195780635c975abb14610137575b600080fd5b6100d360048036038101906100ce9190610d97565b610203565b005b6100dd6106db565b6040516100ea9190610e29565b60405180910390f35b6100fb6106e1565b005b61011760048036038101906101129190610e44565b6106f3565b005b610121610705565b60405161012e9190610e80565b60405180910390f35b61013f6107a8565b60405161014c9190610eb6565b60405180910390f35b61016f600480360381019061016a9190610f2f565b6107be565b60405161017c9190610e80565b60405180910390f35b61018d610807565b005b61019761081b565b005b6101a161082d565b6040516101ae9190610f6b565b60405180910390f35b6101d160048036038101906101cc9190610f2f565b610856565b6040516101de9190610e80565b60405180910390f35b61020160048036038101906101fc9190610f2f565b61089f565b005b61020b610925565b81600260009054906101000a900473ffffffffffffffffffffffffffffffffffffffff1673ffffffffffffffffffffffffffffffffffffffff166370a08231306040518263ffffffff1660e01b81526004016102679190610f6b565b602060405180830381865afa158015610284573d6000803e3d6000fd5b505050506040513d601f19601f820116820180604052508101906102a89190610f9b565b10156102e9576040517f08c379a00000000000000000000000000000000000000000000000000000000081526004016102e09061104b565b60405180910390fd5b600080338560405160200161030093929190611117565b60405160208183030381529060405280519060200120905060005b85518161ffff1610156103f257600180841603610383576001868261ffff168151811061034b5761034a611154565b5b602002602001015183604051602001610366939291906111a4565b6040516020818303038152906040528051906020012091506103d0565b600182878361ffff168151811061039d5761039c611154565b5b60200260200101516040516020016103b7939291906111a4565b6040516020818303038152906040528051906020012091505b6002836103dd919061123f565b925080806103ea9061127e565b91505061031b565b506001548114610437576040517f08c379a000000000000000000000000000000000000000000000000000000000815260040161042e90611340565b60405180910390fd5b6000600460003373ffffffffffffffffffffffffffffffffffffffff1673ffffffffffffffffffffffffffffffffffffffff16815260200190815260200160002054036104c35783600460003373ffffffffffffffffffffffffffffffffffffffff1673ffffffffffffffffffffffffffffffffffffffff168152602001908152602001600020819055505b600460003373ffffffffffffffffffffffffffffffffffffffff1673ffffffffffffffffffffffffffffffffffffffff1681526020019081526020016000205483600360003373ffffffffffffffffffffffffffffffffffffffff1673ffffffffffffffffffffffffffffffffffffffff1681526020019081526020016000205461054e9190611360565b111561058f576040517f08c379a000000000000000000000000000000000000000000000000000000000815260040161058690611406565b60405180910390fd5b82600360003373ffffffffffffffffffffffffffffffffffffffff1673ffffffffffffffffffffffffffffffffffffffff16815260200190815260200160002060008282546105de9190611360565b92505081905550600260009054906101000a900473ffffffffffffffffffffffffffffffffffffffff1673ffffffffffffffffffffffffffffffffffffffff1663a9059cbb33856040518363ffffffff1660e01b8152600401610642929190611426565b6020604051808303816000875af1158015610661573d6000803e3d6000fd5b505050506040513d601f19601f82011682018060405250810190610685919061147b565b503373ffffffffffffffffffffffffffffffffffffffff167fb82d2a7de6e3c04c554cd659f5f2b8d49c0131c0363c91a4ccef6756d1602990846040516106cc9190610e80565b60405180910390a25050505050565b60015481565b6106e9610966565b6106f16109ed565b565b6106fb610966565b8060018190555050565b6000600260009054906101000a900473ffffffffffffffffffffffffffffffffffffffff1673ffffffffffffffffffffffffffffffffffffffff166370a08231306040518263ffffffff1660e01b81526004016107629190610f6b565b602060405180830381865afa15801561077f573d6000803e3d6000fd5b505050506040513d601f19601f820116820180604052508101906107a39190610f9b565b905090565b60008060149054906101000a900460ff16905090565b6000600360008373ffffffffffffffffffffffffffffffffffffffff1673ffffffffffffffffffffffffffffffffffffffff168152602001908152602001600020549050919050565b61080f610966565b6108196000610a4f565b565b610823610966565b61082b610b13565b565b60008060009054906101000a900473ffffffffffffffffffffffffffffffffffffffff16905090565b6000600460008373ffffffffffffffffffffffffffffffffffffffff1673ffffffffffffffffffffffffffffffffffffffff168152602001908152602001600020549050919050565b6108a7610966565b600073ffffffffffffffffffffffffffffffffffffffff168173ffffffffffffffffffffffffffffffffffffffff16036109195760006040517f1e4fbdf70000000000000000000000000000000000000000000000000000000081526004016109109190610f6b565b60405180910390fd5b61092281610a4f565b50565b61092d6107a8565b15610964576040517fd93c066500000000000000000000000000000000000000000000000000000000815260040160405180910390fd5b565b61096e610b76565b73ffffffffffffffffffffffffffffffffffffffff1661098c61082d565b73ffffffffffffffffffffffffffffffffffffffff16146109eb576109af610b76565b6040517f118cdaa70000000000000000000000000000000000000000000000000000000081526004016109e29190610f6b565b60405180910390fd5b565b6109f5610b7e565b60008060146101000a81548160ff0219169083151502179055507f5db9ee0a495bf2e6ff9c91a7834c1ba4fdd244a5e8aa4e537bd38aeae4b073aa610a38610b76565b604051610a459190610f6b565b60405180910390a1565b60008060009054906101000a900473ffffffffffffffffffffffffffffffffffffffff169050816000806101000a81548173ffffffffffffffffffffffffffffffffffffffff021916908373ffffffffffffffffffffffffffffffffffffffff1602179055508173ffffffffffffffffffffffffffffffffffffffff168173ffffffffffffffffffffffffffffffffffffffff167f8be0079c531659141344cd1fd0a4f28419497f9722a3daafe3b4186f6b6457e060405160405180910390a35050565b610b1b610925565b6001600060146101000a81548160ff0219169083151502179055507f62e78cea01bee320cd4e420270b5ea74000d11b0c9f74754ebdbfc544b05a258610b5f610b76565b604051610b6c9190610f6b565b60405180910390a1565b600033905090565b610b866107a8565b610bbc576040517f8dfc202b00000000000000000000000000000000000000000000000000000000815260040160405180910390fd5b565b6000604051905090565b600080fd5b600080fd5b600080fd5b6000601f19601f8301169050919050565b7f4e487b7100000000000000000000000000000000000000000000000000000000600052604160045260246000fd5b610c2082610bd7565b810181811067ffffffffffffffff82111715610c3f57610c3e610be8565b5b80604052505050565b6000610c52610bbe565b9050610c5e8282610c17565b919050565b600067ffffffffffffffff821115610c7e57610c7d610be8565b5b602082029050602081019050919050565b600080fd5b6000819050919050565b610ca781610c94565b8114610cb257600080fd5b50565b600081359050610cc481610c9e565b92915050565b6000610cdd610cd884610c63565b610c48565b90508083825260208201905060208402830185811115610d0057610cff610c8f565b5b835b81811015610d295780610d158882610cb5565b845260208401935050602081019050610d02565b5050509392505050565b600082601f830112610d4857610d47610bd2565b5b8135610d58848260208601610cca565b91505092915050565b6000819050919050565b610d7481610d61565b8114610d7f57600080fd5b50565b600081359050610d9181610d6b565b92915050565b60008060008060808587031215610db157610db0610bc8565b5b600085013567ffffffffffffffff811115610dcf57610dce610bcd565b5b610ddb87828801610d33565b9450506020610dec87828801610d82565b9350506040610dfd87828801610d82565b9250506060610e0e87828801610d82565b91505092959194509250565b610e2381610c94565b82525050565b6000602082019050610e3e6000830184610e1a565b92915050565b600060208284031215610e5a57610e59610bc8565b5b6000610e6884828501610cb5565b91505092915050565b610e7a81610d61565b82525050565b6000602082019050610e956000830184610e71565b92915050565b60008115159050919050565b610eb081610e9b565b82525050565b6000602082019050610ecb6000830184610ea7565b92915050565b600073ffffffffffffffffffffffffffffffffffffffff82169050919050565b6000610efc82610ed1565b9050919050565b610f0c81610ef1565b8114610f1757600080fd5b50565b600081359050610f2981610f03565b92915050565b600060208284031215610f4557610f44610bc8565b5b6000610f5384828501610f1a565b91505092915050565b610f6581610ef1565b82525050565b6000602082019050610f806000830184610f5c565b92915050565b600081519050610f9581610d6b565b92915050565b600060208284031215610fb157610fb0610bc8565b5b6000610fbf84828501610f86565b91505092915050565b600082825260208201905092915050565b7f41697244726f703a204d79546f6b656e20636f6e747261637420646f6573206e60008201527f6f74206861766520656e6f75676820746f6b656e732e00000000000000000000602082015250565b6000611035603683610fc8565b915061104082610fd9565b604082019050919050565b6000602082019050818103600083015261106481611028565b9050919050565b600060ff82169050919050565b60008160f81b9050919050565b600061109082611078565b9050919050565b6110a86110a38261106b565b611085565b82525050565b60008160601b9050919050565b60006110c6826110ae565b9050919050565b60006110d8826110bb565b9050919050565b6110f06110eb82610ef1565b6110cd565b82525050565b6000819050919050565b61111161110c82610d61565b6110f6565b82525050565b60006111238286611097565b60018201915061113382856110df565b6014820191506111438284611100565b602082019150819050949350505050565b7f4e487b7100000000000000000000000000000000000000000000000000000000600052603260045260246000fd5b6000819050919050565b61119e61119982610c94565b611183565b82525050565b60006111b08286611097565b6001820191506111c0828561118d565b6020820191506111d0828461118d565b602082019150819050949350505050565b7f4e487b7100000000000000000000000000000000000000000000000000000000600052601260045260246000fd5b7f4e487b7100000000000000000000000000000000000000000000000000000000600052601160045260246000fd5b600061124a82610d61565b915061125583610d61565b925082611265576112646111e1565b5b828204905092915050565b600061ffff82169050919050565b600061128982611270565b915061ffff820361129d5761129c611210565b5b600182019050919050565b7f41697244726f703a206164647265737320616e6420616d6f756e74206e6f742060008201527f696e207468652077686974656c697374206f722077726f6e672070726f6f662060208201527f70726f76696465642e0000000000000000000000000000000000000000000000604082015250565b600061132a604983610fc8565b9150611335826112a8565b606082019050919050565b600060208201905081810360008301526113598161131d565b9050919050565b600061136b82610d61565b915061137683610d61565b925082820190508082111561138e5761138d611210565b5b92915050565b7f41697244726f703a20416d6f756e7420657863656564732074686520746f746160008201527f6c2061737369676e65642e000000000000000000000000000000000000000000602082015250565b60006113f0602b83610fc8565b91506113fb82611394565b604082019050919050565b6000602082019050818103600083015261141f816113e3565b9050919050565b600060408201905061143b6000830185610f5c565b6114486020830184610e71565b9392505050565b61145881610e9b565b811461146357600080fd5b50565b6000815190506114758161144f565b92915050565b60006020828403121561149157611490610bc8565b5b600061149f84828501611466565b9150509291505056fea26469706673582212205113600ad8cb9d03cb44a0ec695a9b4fb993a7f2bf271eb9c682a695e98c1b6364736f6c634300081b0033",
  "linkReferences": {},
  "deployedLinkReferences": {}
}